{
  "contractName": "Destructor",
  "abi": [
    {
      "inputs": [],
      "stateMutability": "payable",
      "type": "constructor",
      "payable": true
    },
    {
      "inputs": [
        {
          "internalType": "address",
          "name": "addr",
          "type": "address"
        }
      ],
      "name": "destruct",
      "outputs": [],
      "stateMutability": "nonpayable",
      "type": "function"
    }
  ],
  "bytecode": "0x6080604052610118806100136000396000f3fe6080604052348015600f57600080fd5b506004361060285760003560e01c80631beb261514602d575b600080fd5b60436004803603810190603f919060ba565b6045565b005b8073ffffffffffffffffffffffffffffffffffffffff16ff5b600080fd5b600073ffffffffffffffffffffffffffffffffffffffff82169050919050565b6000608c826063565b9050919050565b609a816083565b811460a457600080fd5b50565b60008135905060b4816093565b92915050565b60006020828403121560cd5760cc605e565b5b600060d98482850160a7565b9150509291505056fea26469706673582212203d0f9823a3174f2994929262c58bec82d38d1ed6f3f064461195442063f7ed7164736f6c634300080d0033",
  "immutableReferences": {},
  "source": "// SPDX-License-Identifier: MIT\npragma solidity ^0.8.13;\n\ncontract Destructor {\n\tconstructor() payable {\n\t}\n\n\tfunction destruct(address addr) public {\n\t\tselfdestruct(payable(addr));\n\t}\n}",
  "sourcePath": "/Users/andgein/Work/2023/11. HITB CTF Phuket 2023/truffle/contracts/Destructor.sol",
  "compiler": {
    "name": "solc",
    "version": "0.8.13+commit.abaa5c0e.Emscripten.clang"
  },
  "schemaVersion": "3.4.14",
  "updatedAt": "2023-08-01T11:53:21.810Z",
  "networkType": "ethereum",
  "devdoc": {
    "kind": "dev",
    "methods": {},
    "version": 1
  },
  "userdoc": {
    "kind": "user",
    "methods": {},
    "version": 1
  }
}