{
  "_format": "hh-sol-artifact-1",
  "contractName": "Project",
  "sourceName": "contracts/Project.sol",
  "abi": [
    {
      "inputs": [
        {
          "internalType": "string",
          "name": "_title",
          "type": "string"
        }
      ],
      "stateMutability": "nonpayable",
      "type": "constructor"
    },
    {
      "inputs": [],
      "name": "donate",
      "outputs": [],
      "stateMutability": "payable",
      "type": "function"
    },
    {
      "inputs": [],
      "name": "getLastBaker",
      "outputs": [
        {
          "internalType": "address",
          "name": "",
          "type": "address"
        }
      ],
      "stateMutability": "view",
      "type": "function"
    },
    {
      "inputs": [],
      "name": "getTotalDonations",
      "outputs": [
        {
          "internalType": "uint256",
          "name": "",
          "type": "uint256"
        }
      ],
      "stateMutability": "view",
      "type": "function"
    },
    {
      "inputs": [],
      "name": "isFinished",
      "outputs": [
        {
          "internalType": "bool",
          "name": "",
          "type": "bool"
        }
      ],
      "stateMutability": "view",
      "type": "function"
    },
    {
      "inputs": [],
      "name": "owner",
      "outputs": [
        {
          "internalType": "address payable",
          "name": "",
          "type": "address"
        }
      ],
      "stateMutability": "view",
      "type": "function"
    },
    {
      "inputs": [],
      "name": "title",
      "outputs": [
        {
          "internalType": "string",
          "name": "",
          "type": "string"
        }
      ],
      "stateMutability": "view",
      "type": "function"
    },
    {
      "inputs": [
        {
          "internalType": "uint256",
          "name": "amount",
          "type": "uint256"
        }
      ],
      "name": "withdraw",
      "outputs": [],
      "stateMutability": "nonpayable",
      "type": "function"
    }
  ],
  "bytecode": "0x60806040523480156200001157600080fd5b5060405162000ffd38038062000ffd83398181016040528101906200003791906200022a565b326000806101000a81548173ffffffffffffffffffffffffffffffffffffffff021916908373ffffffffffffffffffffffffffffffffffffffff1602179055504760018190555080600390816200008f9190620004c6565b5050620005ad565b6000604051905090565b600080fd5b600080fd5b600080fd5b600080fd5b6000601f19601f8301169050919050565b7f4e487b7100000000000000000000000000000000000000000000000000000000600052604160045260246000fd5b6200010082620000b5565b810181811067ffffffffffffffff82111715620001225762000121620000c6565b5b80604052505050565b60006200013762000097565b9050620001458282620000f5565b919050565b600067ffffffffffffffff821115620001685762000167620000c6565b5b6200017382620000b5565b9050602081019050919050565b60005b83811015620001a057808201518184015260208101905062000183565b60008484015250505050565b6000620001c3620001bd846200014a565b6200012b565b905082815260208101848484011115620001e257620001e1620000b0565b5b620001ef84828562000180565b509392505050565b600082601f8301126200020f576200020e620000ab565b5b815162000221848260208601620001ac565b91505092915050565b600060208284031215620002435762000242620000a1565b5b600082015167ffffffffffffffff811115620002645762000263620000a6565b5b6200027284828501620001f7565b91505092915050565b600081519050919050565b7f4e487b7100000000000000000000000000000000000000000000000000000000600052602260045260246000fd5b60006002820490506001821680620002ce57607f821691505b602082108103620002e457620002e362000286565b5b50919050565b60008190508160005260206000209050919050565b60006020601f8301049050919050565b600082821b905092915050565b6000600883026200034e7fffffffffffffffffffffffffffffffffffffffffffffffffffffffffffffffff826200030f565b6200035a86836200030f565b95508019841693508086168417925050509392505050565b6000819050919050565b6000819050919050565b6000620003a7620003a16200039b8462000372565b6200037c565b62000372565b9050919050565b6000819050919050565b620003c38362000386565b620003db620003d282620003ae565b8484546200031c565b825550505050565b600090565b620003f2620003e3565b620003ff818484620003b8565b505050565b5b8181101562000427576200041b600082620003e8565b60018101905062000405565b5050565b601f82111562000476576200044081620002ea565b6200044b84620002ff565b810160208510156200045b578190505b620004736200046a85620002ff565b83018262000404565b50505b505050565b600082821c905092915050565b60006200049b600019846008026200047b565b1980831691505092915050565b6000620004b6838362000488565b9150826002028217905092915050565b620004d1826200027b565b67ffffffffffffffff811115620004ed57620004ec620000c6565b5b620004f98254620002b5565b620005068282856200042b565b600060209050601f8311600181146200053e576000841562000529578287015190505b620005358582620004a8565b865550620005a5565b601f1984166200054e86620002ea565b60005b82811015620005785784890151825560018201915060208501945060208101905062000551565b8683101562000598578489015162000594601f89168262000488565b8355505b6001600288020188555050505b505050505050565b610a4080620005bd6000396000f3fe6080604052600436106100705760003560e01c8063777c658f1161004e578063777c658f146100f45780637b3529621461011f5780638da5cb5b1461014a578063ed88c68e1461017557610070565b80632e1a7d4d14610075578063399a65971461009e5780634a79d50c146100c9575b600080fd5b34801561008157600080fd5b5061009c60048036038101906100979190610525565b61017f565b005b3480156100aa57600080fd5b506100b3610364565b6040516100c09190610593565b60405180910390f35b3480156100d557600080fd5b506100de61038e565b6040516100eb919061063e565b60405180910390f35b34801561010057600080fd5b5061010961041c565b604051610116919061066f565b60405180910390f35b34801561012b57600080fd5b50610134610426565b60405161014191906106a5565b60405180910390f35b34801561015657600080fd5b5061015f610433565b60405161016c91906106e1565b60405180910390f35b61017d610457565b005b3373ffffffffffffffffffffffffffffffffffffffff1660008054906101000a900473ffffffffffffffffffffffffffffffffffffffff1673ffffffffffffffffffffffffffffffffffffffff161461020d576040517f08c379a000000000000000000000000000000000000000000000000000000000815260040161020490610748565b60405180910390fd5b47811115610250576040517f08c379a0000000000000000000000000000000000000000000000000000000008152600401610247906107da565b60405180910390fd5b60008111610293576040517f08c379a000000000000000000000000000000000000000000000000000000000815260040161028a90610846565b60405180910390fd5b60008060009054906101000a900473ffffffffffffffffffffffffffffffffffffffff1673ffffffffffffffffffffffffffffffffffffffff16826040516102da90610897565b60006040518083038185875af1925050503d8060008114610317576040519150601f19603f3d011682016040523d82523d6000602084013e61031c565b606091505b5050905080610360576040517f08c379a00000000000000000000000000000000000000000000000000000000081526004016103579061091e565b60405180910390fd5b5050565b6000600260009054906101000a900473ffffffffffffffffffffffffffffffffffffffff16905090565b6003805461039b9061096d565b80601f01602080910402602001604051908101604052809291908181526020018280546103c79061096d565b80156104145780601f106103e957610100808354040283529160200191610414565b820191906000526020600020905b8154815290600101906020018083116103f757829003601f168201915b505050505081565b6000600154905090565b6000476001541415905090565b60008054906101000a900473ffffffffffffffffffffffffffffffffffffffff1681565b66b1a2bc2ec5000034146104a0576040517f08c379a0000000000000000000000000000000000000000000000000000000008152600401610497906109ea565b60405180910390fd5b4760018190555033600260006101000a81548173ffffffffffffffffffffffffffffffffffffffff021916908373ffffffffffffffffffffffffffffffffffffffff160217905550565b600080fd5b6000819050919050565b610502816104ef565b811461050d57600080fd5b50565b60008135905061051f816104f9565b92915050565b60006020828403121561053b5761053a6104ea565b5b600061054984828501610510565b91505092915050565b600073ffffffffffffffffffffffffffffffffffffffff82169050919050565b600061057d82610552565b9050919050565b61058d81610572565b82525050565b60006020820190506105a86000830184610584565b92915050565b600081519050919050565b600082825260208201905092915050565b60005b838110156105e85780820151818401526020810190506105cd565b60008484015250505050565b6000601f19601f8301169050919050565b6000610610826105ae565b61061a81856105b9565b935061062a8185602086016105ca565b610633816105f4565b840191505092915050565b600060208201905081810360008301526106588184610605565b905092915050565b610669816104ef565b82525050565b60006020820190506106846000830184610660565b92915050565b60008115159050919050565b61069f8161068a565b82525050565b60006020820190506106ba6000830184610696565b92915050565b60006106cb82610552565b9050919050565b6106db816106c0565b82525050565b60006020820190506106f660008301846106d2565b92915050565b7f4f6e6c79206f776e65722063616e207769746864726177206d6f6e6579000000600082015250565b6000610732601d836105b9565b915061073d826106fc565b602082019050919050565b6000602082019050818103600083015261076181610725565b9050919050565b7f596f752063616e206e6f74207769746864726177206d6f72652074686174206360008201527f757272656e742062616c616e6365000000000000000000000000000000000000602082015250565b60006107c4602e836105b9565b91506107cf82610768565b604082019050919050565b600060208201905081810360008301526107f3816107b7565b9050919050565b7f596f752063616e206e6f74207769746864726177203020657468657200000000600082015250565b6000610830601c836105b9565b915061083b826107fa565b602082019050919050565b6000602082019050818103600083015261085f81610823565b9050919050565b600081905092915050565b50565b6000610881600083610866565b915061088c82610871565b600082019050919050565b60006108a282610874565b9150819050919050565b7f536f7272792c2062757420492063616e206e6f742073656e64206d6f6e65792060008201527f746f20796f750000000000000000000000000000000000000000000000000000602082015250565b60006109086026836105b9565b9150610913826108ac565b604082019050919050565b60006020820190508181036000830152610937816108fb565b9050919050565b7f4e487b7100000000000000000000000000000000000000000000000000000000600052602260045260246000fd5b6000600282049050600182168061098557607f821691505b6020821081036109985761099761093e565b5b50919050565b7f4d696e696d756d20646f6e6174696f6e20697320302e30352065746865720000600082015250565b60006109d4601e836105b9565b91506109df8261099e565b602082019050919050565b60006020820190508181036000830152610a03816109c7565b905091905056fea2646970667358221220d46884dfa9f08e5b50802c707a92a3c72e3f89defb98c152171b7b942400cdc264736f6c63430008130033",
  "linkReferences": {},
  "deployedLinkReferences": {}
}